:100000000C946B1A0C949C1A0C949C1A0C949C1AC9
:100010000C949C1A0C949C1A0C949C1A0C949C1A88
:100020000C949C1A0C949C1A0C949C1A0C949C1A78
:100030000C949C1A0C949C1A0C949C1A0C949C1A68
:100040000C949C1A0D9423200C949C1A0C949C1ACA
:100050000C949C1A0C949C1A0C940D970C9443F5D8
:100060000C949C1A0C945B4A0C949C1A0C949C1A49
:100070000C949C1A0C949C1A0C949C1A0C949C1A28
:100080000C949C1A0C949C1A0C949C1A0C949C1A18
:100090000C949C1A0C949C1A0C949C1A0C949C1A08
:1000A0000C949C1A0C949C1A0C949C1A0C949C1AF8
:1000B0000C949C1A0C949C1A0C949C1A0C949C1AE8
:1000C0000C949C1A0C949C1A0C949C1A0C949C1AD8
:1000D0000C949C1A0C949C1A0C949C1A0C949C1AC8
:1000E0000C949C1AC0F3C3F3B2F3B6F3BCF3FAF367
:1000F000C7F3CBF3D1F3D5F3D9F3DFF3E3F3E7F3AE
:10010000FAF3EDF3F1F3F5F35FF464F469F473F4E7
:100110007DF4F6F487F48FF497F4A1F4ABF4B5F41E
:10012000C4F4CEF4F6F4D8F4E2F4ECF4084AD73B85
:100130003BCE016E84BCBFFDC12F3D6C74319ABDB6
:1001400056833DDA3D00C77F11BED9E4BB4C3E91DA
:100150006BAAAABE000000803F05A84CCDB2D44EC9
:10016000B93836A9020C50B9918688083CA6AAAACB
:100170002ABE000000803F000D94B5310D94122777
:100180000D945B0E0D942D1E0D94300C0D940801F2
:100190000D94560C0D94D70E0D9473240D94FB26DC
:1001A0000D94B51D0D94BA1F0D946A1B0D94671B19
:1001B0000D94F1150D94DF270D94F5180D94F41C92
:1001C0000D9443000D9477240D94641B0D94D73047
:1001D0000D942F1C0D94631B0D94F61E0D946C1F33
:1001E0000D94B0270D946B0C0D94F3150D94580CD1
:1001F0000D948F270D9420280D94530C0D94CC054D
:100200004E414E494E495459494E46CDCCCC3D0AFB
:10021000D7233C17B7D13877CC2B329595E6241FDE
:10022000B14F0A000020410000C84200401C462097
:10023000BCBE4CCA1B0E5AAEC59D7447322F473305
:100240002062616420706172616D65746572730A09
:100250000057617274656E2E2E2E00205A3A2000CF
:1002600020593A200042656420583A20004D6573B9
:100270006820706F696E742063616E6E6F742062A7
:1002800065207265736F6C7665640A004D6F746FDC
:1002900072656E2065696E6765736368616C74650D
:1002A0007400456E642066696C65206C6973740A1D
:1002B00000426567696E2066696C65206C697374BD
:1002C0000A00286E6F2066696C652900534420700F
:1002D00072696E74696E67206279746520004E6F72
:1002E00074205344207072696E74696E670A00430B
:1002F000757272656E742066696C653A2000466995
:100300006C652064656C657465643A0044656C6571
:1003100074696F6E206661696C65642C2046696C37
:10032000653A20005072696E742074696D653A20D8
:10033000004142474542524F4348454E006F6B00D3
:1003400020573A004520436F6F6C696E672E2E2E42
:10035000004520457874722E206865697A742E2EC7
:100360002E0020573A0042656420636F6F6C696EFF
:10037000672E2E2E0042657474206865697A742E8B
:100380002E2E004B6F7373656C204175732E002009
:10039000466C6F773A20000001363726FF02FFFFD8
:1003A000353C3D38FF0FFFFF312E303E1213FFFF6B
:1003B000FF28FF0C0809FF2CFF1A1C18FFFF2A0852
:1003C000440A2C4320643A0020693A0020703A0025
:1003D000496E76616C6964206578747275646572C3
:1003E0000A0043290A0061626C656420286D696E09
:1003F0002074656D702000436F6C642065787472A2
:100400007564657320617265200023646566696E9A
:10041000652044454641554C545F4B64200023649D
:100420006566696E652044454641554C545F4B698D
:10043000200023646566696E652044454641554C3D
:10044000545F4B702000504944204175746F74759F
:100450006E652066696E69736865642120507574E5
:1004600020746865206C617374204B702C204B697C
:1004700020616E64204B6420636F6E7374616E74D0
:10048000732066726F6D2062656C6F7720696E7481
:100490006F20436F6E66696775726174696F6E2E47
:1004A000680A00504944204175746F74756E652068
:1004B0006661696C6564212074696D656F75740A85
:1004C0000045312002204E494348542045525245B0
:1004D0004943485400546865726D616C2052756ED2
:1004E00061776179004531204845495A454E20469B
:1004F00045484C47455343484C4147454E004865A5
:100500006174696E67206661696C65640050494476
:10051000204175746F74756E65206661696C6564E1
:10052000212054656D706572617475726520746FF9
:100530006F20686967680A00204B643A2000204BEE
:10054000693A2000204B703A20000A20436C617306
:1005500073696320504944200A002054753A2000F2
:10056000204B753A2000206D61783A2000206D699B
:100570006E3A200020643A200020626961733A20BC
:1005800000504944204175746F74756E6520666132
:10059000696C6564212042616420657874727564B9
:1005A0006572206E756D6265720A00504944204183
:1005B00075746F74756E652073746172740A004E81
:1005C0006F2063617365206C696768740A00417508
:1005D000730A004661646520486569676874200095
:1005E000426564204C6576656C696E6720004661E3
:1005F000696C656420746F20656E61626C65204271
:100600006564204C6576656C696E670A004D65739C
:100610006820706F696E742063616E6E6F74206203
:1006200065207265736F6C7665640A004D343231F3
:1006300020696E636F727265637420706172616DA0
:10064000657465722075736167650A00454550528F
:100650004F4D204F4B0A003A200050726F626520C8
:100660005A204F6666736574003F5A206F75742078
:100670006F662072616E676520282D323020746F9E
:10068000203230290A003F4B2076616C7565206F5F
:100690007574206F662072616E67652028302D3179
:1006A00030292E0A00416476616E6365204B3D005F
:1006B0004163746976652045787472756465723A31
:1006C0002000496E76616C69642065787472756487
:1006D00065720A002569730025696D20256973001C
:1006E0002569682025696D202569730025696420C6
:1006F0002569682025696D202569730025697920A1
:10070000256964202569682025696D2025697300A5
:100710004E6F20436865636B73756D2077697468ED
:10072000206C696E65206E756D6265722C204C615F
:100730007374204C696E653A20004142474542522D
:100740004F4348454E00414E474548414C54454E65
:10075000005072696E7465722073746F7070656496
:100760002064756520746F206572726F72732E201D
:1007700046697820746865206572726F7220616EB8
:100780006420757365204D39393920746F20726586
:1007900073746172742E202854656D706572617473
:1007A0007572652069732072657365742E205365B8
:1007B0007420697420616674657220726573746157
:1007C0007274696E67290A004E6F20436865636B17
:1007D00073756D2077697468206C696E65206E751D
:1007E0006D6265722C204C617374204C696E653AA1
:1007F0002000636865636B73756D206D69736D614F
:100800007463682C204C617374204C696E653A20C7
:10081000004C696E65204E756D62657220697320AB
:100820006E6F74204C617374204C696E65204E7538
:100830006D6265722B312C204C617374204C696E93
:10084000653A20004D313130004D333100534420A2
:1008500072656164206572726F720A00446F6E6522
:10086000207072696E74696E672066696C650A0033
:1008700020496E76616C6964206578747275646570
:100880007220000000B0C20000B0C20000000000F2
:1008900000B0420000B04233B3954350726F6269BA
:1008A0006E672067657363686569746572740A00B2
:1008B00050726F62696E67206765736368656974FB
:1008C00065727400205A3A200020593A200042658F
:1008D0006420583A200042696C696E656172204C50
:1008E0006576656C696E6720477269643A0A002410
:1008F000F4D43050C38E20C2A24017828B701112E4
:100900007A910D816CD90AA861E108C75866076120
:100910005143061E4B5D05C145A7041A4111040948
:100920003D9803713931034036DB0265339102D4BF
:10093000305402802E1D02632CEE01752AC501B0D1
:1009400028A001102781018F2564012B244B01E091
:10095000223401AC211F018D200D01801FFC008479
:100960001EED00971DDF00B81CD200E61BC600205C
:100970001BBC00641AB200B219A8000A19A0006AD0
:10098000189900D117910040178B00B516840031DB
:10099000167E00B31579003A157300C7146F00581E
:1009A000146A00EE1366008813630025135E00C707
:1009B000125B006C12570015125400C111510070E7
:1009C000114F0021114B00D61049008D10470046F1
:1009D00010440002104200C00F4000800F3E004251
:1009E0000F3C00060F3B00CB0E3800930E37005C27
:1009F0000E3500270E3400F30D3200C10D3100908A
:100A00000D3000600D2E00320D2D00050D2C00D98B
:100A10000C2B00AE0C2900850C29005C0C2700353E
:100A20000C27000E0C2600E80B2400C40B2400A0A9
:100A30000B23007D0B23005A0B2100390B210018DA
:100A40000B2000F80A1F00D90A1E00BB0A1E009DD9
:100A50000A1D00800A1D00630A1C00470A1B002CA7
:100A60000A1B00110A1A00F7091A00DD091900C44F
:100A7000091900AB091900920917007B09180063D6
:100A80000917004C09160036091600200916000A3D
:100A9000091500F5081500E0081400CC081400B88A
:100AA000081400A4081400900813007D0812006BBD
:100AB00008130058081200460812003408110023D9
:100AC0000811001208110001081100F0071000E0E1
:100AD000071000D0071000C0071000B0070F00A1DA
:100AE00007100091070E0083070F0074070F0065C1
:100AF000070E0057070E0049070E003B070D002E9A
:100B0000070E0020070D0013070D0006070D00F962
:100B1000060C00ED060D00E0060C00D4060C00C823
:100B2000060C00BC060C00B0060C00A4060B0099D5
:100B3000060C008D060B0082060B0077060B006C7E
:100B4000060B0061060A0057060B004C060A00421D
:100B5000060A0038060A002E060A0024060A001AB1
:100B6000060A001006090007060A00FD050900F440
:100B7000050900EB050900E2050900D9050900D0C7
:100B8000050900C7050900BE050900B5050800AD47
:100B9000050800A50509009C050800940508008CBF
:100BA000050800840508007C050800740508006C31
:100BB000050700650508005D050700560508004E9D
:100BC0000507004705070040050800380507003104
:100BD0000507002A050700230507001C0506001667
:100BE0000507000F0507000805060002050700FBC2
:100BF000040600F5040700EE040600E8040600E21F
:100C0000040700DB040600D5040600CF040600C973
:100C1000040600C3040600BD040600B7040600B1C4
:100C2000040500AC040600A6040600A00405009B11
:100C300004060095040500900406008A040500855A
:100C4000040500800406007A0405007504050070A0
:100C50000405006B04050066040500610405005CE2
:100C600004050057040500520405004D0405004822
:100C7000040500430405003E0404003A0405003561
:100C8000040500300404002C04050027040400239C
:100C90000405001E0404001A0404001604050011D3
:100CA0000404000D04040009040500040404000009
:100CB000040400FC030400F8030400F4030400F03F
:100CC000030400EC030400E8030400E4030400E070
:100CD000030400DC030400D8030400D4030400D0A0
:100CE000030400CC030400C8030300C5030300246D
:100CF000F404D9201BC40C5C0E9804C4095F02657F
:100D0000077101F405F900FB04B30048048700C132
:100D10000369005803550003034500BE023A0084EE
:100D200002310053022A002902250004022000E4B7
:100D3000011C00C8011900AF0117009801140084BC
:100D4000011300710110006101100051010E0043F8
:100D5000010D0036010B002B010B0020010B0015CB
:100D60000109000C01090003010800FB000800F361
:100D7000000800EB000700E4000600DE000600D8D3
:100D8000000600D2000600CC000500C7000500C226
:100D9000000500BD000400B9000400B5000400B166
:100DA000000400AD000400A9000400A5000300A297
:100DB0000003009F0004009B0003009800030095BF
:100DC00000020093000300900003008D0002008BDE
:100DD00000030088000200860002008400030081F6
:100DE0000002007F0002007D0002007B000200790B
:100DF0000002007700010076000200740002007219
:100E0000000100710002006F0002006D0001006C23
:100E10000002006A0001006900020067000100662C
:100E20000001006500010064000200620001006131
:100E3000000100600001005F0002005D0001005C35
:100E40000001005B0001005A000100590001005838
:100E50000001005700010056000100550001005438
:100E60000001005300000053000100520001005136
:100E7000000100500001004F0001004E0000004E34
:100E80000001004D0001004C0001004B0000004B30
:100E90000001004A0001004900010048000000482C
:100EA0000001004700010046000000460001004527
:100EB0000000004500010044000100430000004321
:100EC000000100420000004200010041000000411A
:100ED000000100400001003F0000003F0001003E13
:100EE0000000003E0001003D0000003D0001003C0C
:100EF0000000003C0000003C0001003B0000003B03
:100F00000001003A0000003A0001003900000039F9
:100F100000010038000000380000003800010037F0
:100F200000000037000100360000003600000036E7
:100F300000010035000000350000003500010034DC
:100F400000000034000000340001003300000033D2
:100F500000000033000100320000003200000032C7
:100F600000010031000000310000003100010030BC
:100F700000000030000000300001002F0000002FB2
:100F80000000002F0000002F0001002E0000002EA6
:100F90000000002E0001002D0000002D0000002D9B
:100FA0000000002D0001002C0000002C0000002C8F
:100FB0000000002C0001002B0000002B0000002B83
:100FC0000000002B0001002A0000002A0000002A77
:100FD0000000002A0001002900000029000000296B
:100FE000000000290000002900010028000000285E
:100FF0000000002800000028000000280001002751
:101000000000002700000027000000270000002744
:101010000001002600000026000000260000002637
:10102000000000260001002500000025000000252A
:10103000000000250000002500000025000100241C
:101040000000002400000024000000240000002410
:101050000001002300000023000000230000002303
:1010600000000023000000230000002300010022F4
:1010700000000022000000220000002200000022E8
:1010800000000022000100210000002100000021DA
:1010900000000021000000210000002100000021CC
:1010A00000010020000000200000002000000020BF
:1010B00000000020000000200000002000000020B0
:1010C0000001001F0000001F0000001F0000001FA3
:1010D0000000001F0000001F0000001F0001001E94
:1010E0000000001E0000001E0000001E0000002383
:1010F0002C0000B8220000561800003A0F0000B87B
:10110000080000B1040000710200003E010000521E
:101110006573656E643A20006F6B0020746F6F20FA
:101120006C6F6E6720657874727573696F6E20706E
:10113000726576656E7465640A0020636F6C642066
:10114000657874727573696F6E2070726576656EFE
:101150007465640A004142474542524F4348454E38
:10116000004B494C4C2063617573656420627920A3
:101170004B494C4C20627574746F6E2F70696E0A07
:10118000004142474542524F4348454E004B494C6F
:101190004C2063617573656420627920746F6F20E1
:1011A0006D75636820696E61637469766520746922
:1011B0006D65202D2063757272656E7420636F6D8E
:1011C0006D616E643A20004572726F7220777269A9
:1011D00074696E6720746F20454550524F4D210A47
:1011E00000454550524F4D206461746173697A65C2
:1011F000206572726F722E0A00290A0020627974CB
:1012000065733B20637263200053657474696E6775
:10121000732053746F726564202800290A002062CD
:10122000797465733B2063726320002073746F725E
:1012300065642073657474696E6773207265747277
:101240006965766564202800202863616C63756C8D
:101250006174656429210A0020213D200045455024
:10126000524F4D20435243206D69736D6174636822
:10127000202D202873746F72656429200020536923
:101280007A653A2000496E6465783A2000204D6105
:10129000726C696E3D563535290A00284545505215
:1012A0004F4D3D00454550524F4D20766572736954
:1012B0006F6E206D69736D617463682000787900CA
:1012C0007A7800797A00207A00207900207800630B
:1012D000002E2020202000253033692E7800302E6B
:1012E00025303369002073643A00737464206465A8
:1012F000763A00737464206465763A004E6F20631A
:101300006F6E76657267656E6365004974657261BC
:1013100074696F6E203A202530326900536176651A
:101320002077697468204D35303020616E642F6FEE
:101330007220636F707920746F20436F6E666967E7
:1013400075726174696F6E2E6800253033692E786E
:1013500000302E253033690043616C69627261741C
:10136000696F6E2073643A00726F6C6C696E6720EF
:101370006261636B2E00737464206465763A004387
:10138000616C6962726174696F6E204F4B00456ECB
:1013900064204452592D52554E00436F727265635A
:1013A000742064656C74612073657474696E67730E
:1013B0002077697468204D36363520616E64204D83
:1013C0003636360A002020285345542D5550290022
:1013D00020284452592D52554E29003F284D36366B
:1013E00035204229656420726164697573206973D0
:1013F00020696D706C61757369626C652E0A0043BB
:101400006865636B696E672E2E2E2041430047335B
:1014100033204175746F2043616C69627261746539
:101420000A003F2856296572626F7365206C6576E5
:10143000656C20697320696D706C61757369626C8D
:1014400065202830202D2033292E0A003F284629E8
:101450006F72636520697465726174696F6E20696B
:101460007320696D706C61757369626C65202830DA
:10147000202D203330292E0A003F284329616C6932
:1014800062726174696F6E20707265636973696FEF
:101490006E20697320696D706C61757369626C652B
:1014A00020283E3D30292E0A003F2850296F696EC2
:1014B000747320697320696D706C61757369626CF7
:1014C0006520282D31202D203130292E0A0056206C
:1014D00045204A65726B00562045204A65726B00B4
:1014E000562045204A65726B00562043204A65729B
:1014F0006B00562043204A65726B00562043204AF9
:1015000065726B00562042204A65726B005620427D
:10151000204A65726B00562042204A65726B005665
:101520002041204A65726B00562041204A65726B4B
:1015300000562041204A65726B00426577656775E9
:101540006E6700452053746570732F6D6D004520E4
:1015500053746570732F6D6D004320537465707301
:101560002F6D6D00432053746570732F6D6D0042B5
:101570002053746570732F6D6D0042205374657035
:10158000732F6D6D00412053746570732F6D6D0066
:10159000412053746570732F6D6D004265776567E8
:1015A000756E670053746570732F6D6D004A6572B8
:1015B0006B0042657363686C65756E6967756E670D
:1015C00000476573636877696E6469676B65697402
:1015D000005A205665727361747A005A20566572FB
:1015E0007361747A0045696E7374656C6C756E67AF
:1015F000656E00442046696C2E00442046696C2EBE
:10160000004175730045696E004520696E206D6D5F
:10161000C2B300416476616E63652046616B746F8E
:101620007200416476616E63652046616B746F720F
:101630000045696E7374656C6C756E67656E00430A
:10164000616E6E6F7420656E74657220737562646E
:1016500069723A2000052E2E0048617570746D6520
:101660006EC3BC0000476573616D74204578747269
:101670007564696572743A2000256C642E25696D65
:1016800000004CC3A46E6773746572204472756366
:101690006B6A6F623A200000476573616D74652064
:1016A000447275636B7A6569743A20004265656EB1
:1016B0006465746520447275636B653A2000476504
:1016C00073616D746520447275636B653A20000028
:1016D000002200250028002B002E003100340002DB
:1016E000010000050108010B010000200023002675
:1016F0000029002C002F0032000001000003010629
:101700000109010505050507050808080802020288
:10171000020A0A080804040404010101010101018C
:10172000010303030303030303040707070C0C0C63
:101730000C0C0C0C0C02020202060606060606063B
:10174000060B0B0B0B0B0B0B0B01021020200808D8
:101750001020401020408002010201080402010113
:1017600002040810204080804020100804020180FC
:101770000402018040201008040201080402010153
:10178000020408102040800102040810204080005C
:10179000000A0B02090C0D0E0807030401000000EB
:1017A0000000000000000000000000000000000039
:1017B00000000000000000000000001211100000F6
:1017C0000000000000000000000000000000000019
:1017D00000000000004142474542524F4348454EF9
:1017E00000202D20496E76616C69642065787472E2
:1017F00075646572206E756D62657220210A000045
:101800001C1F11111F00000006191803130C0004FF
:101810000E1F041C000000000E1315110E00001C0A
:1018200010181705060500040A0A0A0A11110E0C01
:1018300012120C00000000001F1511151F00002DD2
:101840002D2D2D2D2D007C4D61726C696E7C002D2F
:101850002D2D2D2D2D0033442052617069642031CF
:101860002E312E3900334420526170696420312EAC
:10187000312E390020312E312E39002020506C615C
:101880006E6E657242756666657242797465733A0A
:1018900020002046726565204D656D6F72793A2093
:1018A00000436F6D70696C65643A20446563203352
:1018B0003020323031380A00207C20417574686F46
:1018C000723A202833442052617069642C204D61A3
:1018D00078204772756E646C6572204D61726C6918
:1018E0006E312E312E395F41424C290A003230319F
:1018F000382D31312D313700204C617374205570F3
:1019000064617465643A2000312E312E390A004D2D
:1019100061726C696E0020536F6674776172652026
:1019200052657365740A00205761746368646F6759
:101930002052657365740A002042726F776E206FC3
:1019400075742052657365740A0020457874657259
:101950006E616C2052657365740A00506F77657212
:1019600055700A0073746172740A006175746F2592
:10197000692E67006572726F722077726974696E82
:101980006720746F2066696C650A00456E64737425
:101990006F70702025632025632025632025630058
:1019A000205A3A0020593A0020583A00656E647374
:1019B000746F7073206869743A2000446F6E6520FC
:1019C000736176696E672066696C652E0A004D3218
:1019D00039002CFFFFFFFFFF0001010101016265DB
:1019E000640A002C2073797374656D2073746F70B2
:1019F00070656421204865617465725F49443A20CE
:101A0000004265642068656174696E67206661697B
:101A10006C65640048656174696E67206661696C15
:101A20006564004531204845495A454E20464548A1
:101A30004C47455343484C4147454E004865617407
:101A4000696E67206661696C65640070012C0190A5
:101A5000012701B0012201C0011D01F00118011090
:101A600002130130020E016002090190020401C05C
:101A700002FF000003FA004003F5008003F000D0ED
:101A800003EB002004E6007004E100E004DC004009
:101A900005D700C005D2004006CD00D006C80080A2
:101AA00007C3003008BE00F008B900C009B400B098
:101AB0000AAF00B00BAA00D00CA500000EA0005089
:101AC0000F9B00C01096005012910000148C00C0B3
:101AD000158700B0178200B0197D00D01B78000078
:101AE0001E730040206E0090226900F024640040C4
:101AF000275F0090295A00E02B5500102E5000203F
:101B0000304B0010324600E033410090353C00106D
:101B100037370070383200A0392D00B03A2800A0C5
:101B20003B2300603C1E00103D1900903D14001046
:101B30003E0F00703E0A00C03E0500003F0000401E
:101B40003FFBFF803FF6FFC03FF1FF453120022001
:101B50004E49434854204552524549434854004257
:101B600045545402204E4943485420455252454959
:101B700043485400546865726D616C2052756E6103
:101B8000776179004531200220C39C42455253437E
:101B90004852495454454E0042455454200220C3F3
:101BA0009C42455253434852495454454E004D417E
:101BB0005854454D502074726967676572656400BA
:101BC0004531200220554E54455253434852495402
:101BD00054454E0042455454200220554E5445521F
:101BE00053434852495454454E004D494E54454D77
:101BF0005020747269676765726564004D383420DF
:101C0000582059205A204500202800202F0020422B
:101C1000403A0020403A00434F4D4D554E49434114
:101C200054494F4E0044525952554E004552524F5E
:101C3000525300494E464F004543484F005761728A
:101C4000746520617566204E75747A6572005072F5
:101C50006F7465637465642050696E0A0046696C30
:101C6000616D656E7420757365643A20005374610C
:101C700074733A20002C204C6F6E67657374206A71
:101C80006F623A2000546F74616C2074696D653A1C
:101C9000200053746174733A20002C204661696CF3
:101CA00065643A20002C2046696E69736865643A61
:101CB00020005072696E74733A200053746174731B
:101CC0003A2000381C331C2C1C251C171C6F666620
:101CD0000044454255473A004D31343520533C6964
:101CE0006E6465783E206F7574206F662072616E39
:101CF00067652028302D31290A00205A3A002059E2
:101D00003A0020436F756E7420583A0020453A001F
:101D1000205A3A0020593A00583A002C20002C2032
:101D2000003A004361703A00544845524D414C5FBF
:101D300050524F54454354494F4E004155544F5211
:101D400045504F52545F53445F53544154555300D0
:101D5000454D455247454E43595F504152534552B8
:101D600000434153455F4C494748545F42524947FD
:101D700048544E45535300544F47474C455F4C49D8
:101D80004748545300534F4654574152455F504FB4
:101D9000574552004255494C445F50455243454EC9
:101DA00054004C4556454C494E475F444154410010
:101DB0005A5F50524F4245004155544F4C4556458D
:101DC0004C005052494E545F4A4F420050524F47C8
:101DD00052455353004155544F5245504F52545F52
:101DE00054454D5000564F4C554D455452494300B3
:101DF000454550524F4D0053455249414C5F584F55
:101E00004E5F584F4646004649524D574152455F36
:101E10004E414D453A4D61726C696E20312E312E26
:101E20003920284769746875622920534F555243F9
:101E3000455F434F44455F55524C3A687474707324
:101E40003A2F2F6769746875622E636F6D2F4D612D
:101E5000726C696E4669726D776172652F4D617241
:101E60006C696E2050524F544F434F4C5F56455251
:101E700053494F4E3A312E30204D414348494E454B
:101E80005F545950453A4B6F7373656C20455854F5
:101E900052554445525F434F554E543A31205555A3
:101EA00049443A63656465326132662D343161328A
:101EB0002D343734382D396231322D633535633660
:101EC000326633363766660A002F2F200020540012
:101ED000205200416363656C65726174696F6E3A8C
:101EE0002050005741524E494E4721204C6F7720D9
:101EF0005A204A65726B206D6179206C656164209F
:101F0000746F20756E77616E74656420706175738F
:101F100065732E0A00205A00205900580020204DD9
:101F200061783A2000205A00205900580020204DA6
:101F3000696E3A200045696E0041757300536F6603
:101F40007420656E6473746F70733A20007C3C3E3D
:101F50005E2B3D3F2F5B5D3B2C2A225C004D3234D3
:101F6000004D323320257300556E6B6E6F776E20F7
:101F7000636F6D6D616E643A20220053442063618B
:101F80007264206F6B0A006F70656E526F6F742001
:101F90006661696C65640A00766F6C756D652E69A3
:101FA0006E6974206661696C65640A005344206937
:101FB0006E6974206661696C0A0057726974696E93
:101FC0006720746F2066696C653A20006F70656EDB
:101FD000206661696C65642C2046696C653A200056
:101FE0006F70656E206661696C65642C2046696C53
:101FF000653A200046696C652073656C656374659D
:10200000640A002053697A653A200046696C6520AD
:102010006F70656E65643A20002066696C653A20D1
:1020200000646F696E67006672657368004E6F7753
:102030002000454E4420535542524F5554494E4579
:102040000A002220706F73002220706172656E7426
:102050003A2200535542524F5554494E4520434170
:102060004C4C207461726765743A220041424745C6
:1020700042524F4348454E00747279696E6720742E
:102080006F2063616C6C207375622D67636F64658C
:102090002066696C6573207769746820746F6F209F
:1020A0006D616E79206C6576656C732E204D41589C
:1020B000206C6576656C2069733A004572726F72A8
:1020C0003A00000000000000000033B39543566F53
:1020D000726865722025732573257320686F6D659E
:1020E0006E0020686F6D656E0A005A005900580036
:1020F000566F726865722000202844525952554E1E
:102100002900473239204175746F20426564204CA4
:102110006576656C696E67003F20284C2C522C4612
:102120002C4229206F7574206F6620626F756E6473
:10213000732E0A003F2856296572626F7365206C02
:102140006576656C20697320696D706C6175736963
:10215000626C652028302D34292E0A0042616420EB
:102160005A2076616C75650A004E6F2062696C6951
:102170006E65617220677269640A002020004F66F4
:10218000667365740020205261646975733A005467
:102190007A00547900547800202052616469757384
:1021A0003A00457A004579004578002E4865696710
:1021B00068743A004B616C69627269657265205A95
:1021C000004B616C696272696572652059004B61F0
:1021D0006C69627269657265205800486F6D6500B0
:1021E00044656C74612045696E73742E20616E7A4B
:1021F0006569672E004B6F6E6669672E206C61649F
:10220000656E004B616C69627269657265204D692B
:10221000747465004B6F6E6669672E207370656914
:10222000636865726E0050726F6265205A2D6F662A
:10223000667365740047333320502D310044656C5C
:1022400074612048C3B66865207365747A656E0052
:10225000473333205031004175746F6D2E204B6130
:102260006C696272696572756E6700473333004846
:10227000617570746D656EC3BC00580059005A00DA
:102280004578747275646572200020302C31206DA1
:102290006D0020312C30206D6D0031302C30206DE0
:1022A0006D004265776567656E0045787472756488
:1022B000657220005A0059005800496E2042657727
:1022C0006567756E672E2E2E00457874727564658D
:1022D000722000486F6D6500473238005A00416235
:1022E0007374616E64205859005900580041757329
:1022F0000045696E00536F667420456E6473746F99
:10230000707300566F72626572656974756E6700EE
:102310005765726B7365696E7374656C6C756E6707
:10232000656E0045696E7374656C6C756E67656E7D
:10233000005374616E646172647765727465206CB9
:102340006164656E004B6F6E6669672E206C616418
:10235000656E005765726B7365696E7374656C6C3E
:10236000756E67656E004B6F6E6669672E207370C1
:102370006569636865726E0046696C616D656E744F
:10238000004265776567756E670054656D706572AC
:10239000617475720048617570746D656EC3BC00C0
:1023A000566F72772E204142532045696E73742E0A
:1023B00000566F72772E20504C412045696E737421
:1023C0002E005049442044005049442044005049C4
:1023D00044204900504944204900504944205000BD
:1023E000504944205000022046616B746F72000215
:1023F0002046616B746F720002206D6178000220CC
:102400006D61780002206D61780002206D696E00B8
:1024100002206D696E0002206D696E0041757300C7
:1024200045696E004175746F54656D70004CC3BC96
:1024300066746572004CC3BC667465720042657454
:102440007400426574740044C3BC73650044C3BC2B
:1024500073650045696E7374656C6C756E67656E47
:10246000004B6F6E6669672E2073706569636865DF
:10247000726E004265747400426574740044C3BC9B
:1024800073650044C3BC7365004CC3BC667465725D
:10249000004CC3BC667465720054656D70657261F2
:1024A0007475720020746F6F206C6F6E6720657892
:1024B00074727573696F6E2070726576656E74657F
:1024C000640A0020636F6C642065787472757369A8
:1024D0006F6E2070726576656E7465640A00566F63
:1024E00072772E20504C4120457874722E00566F22
:1024F0007277C3A4726D656E20504C4100566F72A6
:10250000772E20504C41204265747400566F7262E1
:102510006572656974756E6700566F72772E20411B
:10252000425320457874722E00566F72772E2041E8
:102530004253204265747400566F7277C3A4726D63
:10254000656E2041425300566F7262657265697410
:10255000756E67004B6F6E6669672E2073706569D4
:10256000636865726E004B6F6E6669672E206C61E2
:1025700064656E005A205665727361747A005A2041
:102580005665727361747A00417573626C656E642E
:1025900068C3B6686500417573626C656E6468C334
:1025A000B66865004175730045696E0042657474D4
:1025B000204E6976656C6C696572756E6700426560
:1025C0007474206E6976656C6C696572656E00471F
:1025D00032380A4732390047323900486F6D65009A
:1025E00047323800566F72626572656974756E673E
:1025F0000044656C7461206B616C6962726965721C
:10260000656E00566F7277C3A4726D656E2041428D
:102610005300566F7277C3A4726D656E20504C41A3
:102620000041626BC3BC686C656E004D6F746F7265
:10263000656E206465616B746976696572656E00AC
:102640004D38340042657474204E6976656C6C694F
:102650006572756E6700486F6D65004732380042DD
:1026600065776567656E0048617570746D656EC3EA
:10267000BC00203FECED3F5C7C3F2263617F3F3F2D
:1026800052B0DF3F323327E4F1A52C31DF7E3F3FEC
:102690003F3F3F3F3F3FE13F3F3F3F3F3F3F3F3FA8
:1026A0003F3F3F3F3F3F3F3FEF783F3F3F3FF53F9B
:1026B0003FE23F3F3F3FE13F3F3F3F3F3F3F3F3FE5
:1026C0003F3F3FEE3F3F3F3FEFFD3F3F3F3FF53F47
:1026D0003F3F25753A2530327500253032753A2551
:1026E000303275002D2D2D00534400202020202055
:1026F000200020202020004B6F7373656C206265E2
:1027000072656974005072696E74696E672E2E2E40
:1027100000447275636B2070617573696572740033
:1027200048617264636F6465642044656661756CBA
:10273000742053657474696E6773204C6F616465AF
:10274000640A00D0070000D0070000D0070000D0C6
:1027500007000000007A4400007A4400007A440038
:102760000048430000A0420000A0420000A0420038
:1027700000C4423A0A0020286D6D290020204D39FE
:102780003030204B004C696E656172204164766187
:102790006E63653A0A0020204D383531205A005AC0
:1027A0002D50726F6265204F666673657400204419
:1027B0000020490020204D33303120500050494442
:1027C0002073657474696E67733A0A0020460020AE
:1027D000420020480020204D3134352053004D6107
:1027E00074657269616C20686561747570207061D0
:1027F00072616D65746572733A0A00205A0020593F
:1028000000205800204200205300204800205200A1
:1028100020204D363635204C0044656C74612073A1
:10282000657474696E67733A204C3C646961676FC4
:102830006E616C5F726F643E20523C7261646975B8
:10284000733E20483C6865696768743E20533C735A
:1028500065676D656E74735F7065725F733E20426D
:102860003C63616C6962726174696F6E207261644D
:102870006975733E2058595A3C746F7765722061B0
:102880006E676C6520636F7272656374696F6E73D7
:102890003E0A00205A0020590020204D36363620AE
:1028A0005800456E6473746F702061646A75737448
:1028B0006D656E743A0A00205A00204A00202047B5
:1028C00032392057204900205A0020204D34323020
:1028D0002053004175746F20426564204C65766515
:1028E0006C696E673A0A00204500205A00205900A2
:1028F00020580020540020530020204D3230352035
:10290000510020453C6D61785F655F6A65726B3E82
:102910000020583C6D61785F785F6A65726B3E207D
:10292000593C6D61785F795F6A65726B3E205A3CF5
:102930006D61785F7A5F6A65726B3E0041647661B3
:102940006E6365643A20513C6D696E5F7365676DB7
:10295000656E745F74696D655F75733E20533C6D81
:10296000696E5F66656564726174653E20543C6D96
:10297000696E5F74726176656C5F666565647261CD
:1029800074653E0020540020520020204D32303427
:10299000205000416363656C65726174696F6E20DD
:1029A00028756E6974732F7332293A20503C707207
:1029B000696E745F616363656C3E20523C7265743E
:1029C000726163745F616363656C3E20543C747232
:1029D0006176656C5F616363656C3E0A002045004B
:1029E000205A0020590020204D3230312058004D0F
:1029F0006178696D756D20416363656C65726174A2
:102A0000696F6E2028756E6974732F7332293A0AC4
:102A100000204500205A0020590020204D3230333C
:102A20002058004D6178696D756D2066656564722A
:102A3000617465732028756E6974732F73293A0A5F
:102A400000204500205A0020590020204D39322016
:102A5000580053746570732070657220756E6974C8
:102A60003A0A0020204D3230302044300A00202025
:102A70004D3230302044002044697361626C6564DB
:102A80000A0046696C616D656E74207365747469C3
:102A90006E67733A0020204D3134392043203B20AB
:102AA000556E69747320696E2043656C7369757324
:102AB0000A002020473231202020203B0000002146
:102AC00000240027002A002D0030003300010100FF
:102AD00000040107010A0143616E6E6F74206F707C
:102AE000656E2073756264697220006563686F3A71
:102AF000006F70656E206661696C65642C204669A4
:102B00006C653A200053442D4B6172746520656EEC
:102B1000746665726E740053442D4B617274652047
:102B200065726B616E6E74000000000001020404A7
:102B30000000001C1C0C0404040201000000000042
:102B40000408100000000000486F6D696E67206780
:102B500065736368656974657274005452494747C8
:102B600045524544006F70656E003A20007A5F6DF3
:102B70006178007A5F6D696E00795F6D61780078C9
:102B80005F6D6178005265706F7274696E67206561
:102B90006E6473746F70207374617475730A00FFD0
:102BA000FDFCFAF8F6F4F2F0EEECEAE9E7E5E3E131
:102BB000E0DEDCDAD9D7D5D4D2D0CFCDCBCAC8C7E6
:102BC000C5C3C2C0BFBDBCBAB9B7B6B4B3B2B0AF6B
:102BD000ADACAAA9A8A6A5A4A2A1A09E9D9C9A99C5
:102BE000989795949392908F8E8D8B8A89888786FB
:102BF00084838281807F7E7D7B7A79787776757415
:102C0000737271706F6E6D6C6B6A6968676665640C
:102C1000636261605F5E5D5C5B5A595858575655F8
:102C20005453525150504F4E4D4C4B4A4A494847CD
:102C30004646454443424241403F3E3E3D3C3B3B8D
:102C40003A39383837363535343332323130302F3F
:102C50002E2E2D2C2B2B2A292928272726252524E3
:102C6000232322212120201F1E1E1D1C1C1B1B1A7A
:102C70001919181817161615151413131212111105
:102C8000100F0F0E0E0D0D0C0C0B0A0A0909080887
:102C900007070606050504040303020201000000FD
:102CA00000000100000001000080005555550000A3
:102CB00000400033333300AAAA2A004992240000BE
:102CC000002000C7711C0099991900D145170055C3
:102CD0005515003BB11300244912001111110000D9
:102CE0000010000F0F0F00E3380E0043790D00CCE9
:102CF000CC0C00C3300C00E8A20B0064210B00AA2E
:102D0000AA0A00703D0A009DD80900427B09009282
:102D1000240900DCD308008888080010420800005D
:102D2000000800F0C1070087870700755007007191
:102D30001C07003EEB0600A1BC0600699006006679
:102D4000660600703E06006118060017F405007460
:102D5000D105005BB00500B2900500627205005518
:102D600055050078390500B81E0500050505004E1B
:102D7000EC040087D40400A1BD040090A70400491E
:102D8000920400C17D0400EE690400C756040044AB
:102D90004404005C320400082104004110040000D7
:102DA0000004003FF00300F8E0030026D20300C354
:102DB000C30300CCB503003AA803000A9B03003804
:102DC0008E0300C08103009F750300D0690300508B
:102DD0005E03001D53030034480300913D0300339C
:102DE00033030016290300381F0300971503003032
:102DF0000C0300030303000BFA020049F10200BABE
:102E0000E802005CE002002DD802002DD00200593B
:102E1000C80200B0C0020031B90200DAB10200AA53
:102E2000AA0200A0A30200BC9C0200FA9502005C6A
:102E30008F0200DF88020082820200457C020027A8
:102E400076020027700200436A02007C640200D010
:102E50005E02003F590200C8530200447275636B62
:102E6000206162676562726F6368656E004B6569B9
:102E70006E652053442D4B617274650053442D4B95
:102E8000617274650053442D447275636B20416216
:102E900062727563680053442D447275636B2046FB
:102EA0006F72747365747A756E6700C39C62657225
:102EB0002064656E20447275636B65720053442D07
:102EC000447275636B2050617573650045696E735C
:102ED00074656C6C756E67656E00566F72626572B4
:102EE000656974756E67004A757374696572756E8D
:102EF0006700496E666F0042616279737465702085
:102F00005A004261627973746570205A00466C758C
:102F100073737261746500466C7573737261746566
:102F2000004CC3BC66746572004CC3BC66746572A9
:102F3000004265747400426574740044C3BC7365D8
:102F40000044C3BC736500417573626C656E646850
:102F5000C3B6686500417573626C656E6468C3B61C
:102F60006865004765736368772E0047657363681B
:102F7000772E0048617570746D656EC3BC00426940
:102F800074746520526573657474656E004452559F
:102F9000434B45522053544F5050005072696E7449
:102FA00065722068616C7465642E206B696C6C2896
:102FB000292063616C6C6564210A00656E7175651A
:102FC0007565696E67202200000070420000704243
:102FD00000007042000000005761726E696E673A2F
:102FE00020486F6D696E672042756D702044697668
:102FF00069736F72203C20310A000A0A0A0000A09F
:10300000400000A0400000A040000030430000301D
:103010004333B39543010101000021104220633086
:103020008440A550C660E770088129914AA16BB120
:103030008CC1ADD1CEE1EFF13112100273325222C8
:10304000B5529442F772D662399318837BB35AA370
:10305000BDD39CC3FFF3DEE3622443342004011498
:10306000E664C774A44485546AA54BB528850995C0
:10307000EEE5CFF5ACC58DD5533672261116300668
:10308000D776F6669556B4465BB77AA71997388710
:10309000DFF7FEE79DD7BCC7C448E5588668A77828
:1030A0004008611802282338CCC9EDD98EE9AFF960
:1030B000488969990AA92BB9F55AD44AB77A966A08
:1030C000711A500A333A122AFDDBDCCBBFFB9EEBB0
:1030D000799B588B3BBB1AABA66C877CE44CC55CD8
:1030E000222C033C600C411CAEED8FFDECCDCDDD00
:1030F0002AAD0BBD688D499D977EB66ED55EF44EA8
:10310000133E322E511E700E9FFFBEEFDDDFFCCF4F
:103110001BBF3AAF599F788F8891A981CAB1EBA1A3
:103120000CD12DC14EF16FE18010A100C230E3201F
:103130000450254046706760B9839893FBA3DAB3C7
:103140003DC31CD37FE35EF3B1029012F322D2326F
:103150003542145277625672EAB5CBA5A895898597
:103160006EF54FE52CD50DC5E234C324A0148104BF
:103170006674476424540544DBA7FAB79987B89767
:103180005FE77EF71DC73CD7D326F2369106B0160F
:1031900057667676154634564CD96DC90EF92FE927
:1031A000C899E9898AB9ABA944586548067827685F
:1031B000C018E1088238A3287DCB5CDB3FEB1EFB07
:1031C000F98BD89BBBAB9ABB754A545A376A167AAF
:1031D000F10AD01AB32A923A2EFD0FED6CDD4DCDD7
:1031E000AABD8BADE89DC98D267C076C645C454CFF
:1031F000A23C832CE01CC10C1FEF3EFF5DCF7CDFA7
:103200009BAFBABFD98FF89F176E367E554E745E4E
:10321000932EB23ED10EF01E56206D696E204C6585
:10322000657266616872740056206D696E204C6527
:10323000657266616872740056206D696E204C6517
:10324000657266616872740056206D696E00562062
:103250006D696E0056206D696E0056206D61782094
:10326000450056206D617820450056206D6178201C
:10327000450056206D617820430056206D6178200E
:10328000430056206D617820430056206D61782000
:10329000420056206D617820420056206D617820F2
:1032A000420056206D617820410056206D617820E3
:1032B000410056206D617820410042657765677551
:1032C0006E670041206D617820450041206D617876
:1032D00020450041206D617820430041206D6178D8
:1032E00020430041206D617820420041206D6178CB
:1032F00020420041206D617820410041206D6178BD
:1033000020410041204C656572666168727400411D
:10331000204C656572666168727400412052657464
:10332000726163740041205265747261637400417C
:103330000041004265776567756E67004D617820D2
:1033400054656D703A20313530004D696E205465FA
:103350006D703A203500544265643A4550434F53EE
:10336000203130304B004D61782054656D703A202B
:10337000323735004D696E2054656D703A20350046
:1033800054303A204550434F53203130304B004E9B
:1033900065747A7465696C3A2047656E6572696315
:1033A0000050726F746F6B6F6C6C3A20312E30006E
:1033B000426175643A2032353030303000416E79E8
:1033C00063756269632052414D505320312E3400A1
:1033D00042696C696E65617265204E6976656C6CD8
:1033E0002E0045787472756465723A2031006874F5
:1033F00074703A2F2F6D61726C696E66772E6F72E2
:1034000067004B6F7373656C00323031382D31318A
:103410002D313700312E312E39004D61726C696EBD
:1034200000447275636B65722053746174697374C0
:10343000696B00546865726D6973746F72656E00B4
:10344000426F61726420496E666F00447275636BEF
:10345000657220496E666F0048617570746D656EA7
:10346000C3BC00486F6D652058595A004732380078
:103470004469616720526F64004469616720526F3C
:103480006400547A00547A005479005479005478D6
:103490000054780052616469757300526164697503
:1034A0007300457A00457A004579004579004578F2
:1034B0000045780048C3B668650048C3B668650033
:1034C00044656C7461206B616C69627269657265D8
:1034D0006E00E600BC0011241FBECFEFD1E2DEBFBC
:1034E000CDBF00E00CBF13E0A0E0B2E0ECE8F1E8F3
:1034F00002E00BBF02C007900D92A436B107D9F7C6
:1035000026E1A4E6B3E001C01D92A335B207E1F7BE
:103510001AE1CAE6DAE100E006C021970109802F2E
:10352000FE010F942440C936D10780E00807A9F7AF
:103530000F94E12A0D94B5400C9400002F923F9215
:103540004F925F926F927F928F929F92AF92BF92B3
:10355000CF92DF92EF92FF920F931F93CF93DF935F
:10356000CDB7DEB7CE58D1090FB6F894DEBF0FBE87
:10357000CDBF809158048D3411F40C94F624843519
:1035800011F40C949935873411F00C94E335809143
:103590005604909157048D31910509F4D5C79CF4D8
:1035A000843091053CF482309105CCF597FF30C012
:1035B0000C94F2248430910509F44CC74C9709F41B
:1035C00087C70C94F2248A32910511F40C947C2361
:1035D00064F48E31910509F4BBC7819711F00C9406
:1035E000F2240E94BC720C94E5358B35910511F4E0
:1035F0000C9423248C35910511F40C9428248A35DD
:10360000910511F00C94F224109268030C94E535A6
:103610008091260281110C94E8350C94E5352091B7
:103620002602222311F40C94E53511E0029709F0EB
:1036300010E00E94EAC282E50E946C3F882309F4F0
:1036400030C10E94F23E6B017C01409043085090D3
:1036500044086090450870904608209147083091D2
:1036600048084091490850914A0828A739A74AA715
:103670005BA78091E80E9091E90EA091EA0EB091BF
:10368000EB0E88AB99ABAAABBBAB2091EC0E3091A3
:10369000ED0E4091EE0E5091EF0E2CAB3DAB4EABCC
:1036A0005FAB20E030E0A901C701B6010F94773885
:1036B000882309F4B5C6A301920168A979A98AA94A
:1036C0009BA90F94773881110DC028A539A54AA56B
:1036D0005BA56CA97DA98EA99FA90F947738882333
:1036E00009F49EC620E030E0A901C701B6010F949D
:1036F0007738881F8827881F18130BC080E090E058
:10370000A0E8BFE324968CAF9DAFAEAFBFAF2497C8
:103710000AC020E030E040E85FEB24962CAF3DAFDC
:103720004EAF5FAF2497A301920168A979A98AA936
:103730009BA90F94BE3C68AF79AF8AAF9BAF28A519
:1037400039A54AA55BA56CA97DA98EA99FA90F944F
:10375000BE3C6CAF7DAF8EAF9FAF28AD39AD4AADEB
:103760005BADCA01B9010F94DC384B015C012CAD93
:103770003DAD4EAD5FADCA01B9010F94DC389B0180
:10378000AC01C501B4010F94BF3C0F94783F6CA706
:103790007DA78EA79FA720E030E040E05FE30F9475
:1037A000DC384B015C01A7019601C701B6010F94FB
:1037B000DC386B017C01A5019401C501B4010F94B3
:1037C000DC389B01AC01C701B6010F94BE3C0F94DD
:1037D000783F9B01AC0124966CAD7DAD8EAD9FAD65
:1037E00024970F94DC384B015C0128A939A94AA918
:1037F0005BA9C301B2010F94BF3C20E030E040E080
:103800005FE30F94DC386B017C016CAD7DAD8EAD58
:103810009FAD90582CA53DA54EA55FA50F949B3D4F
:103820009B01AC01C501B4010F94DC389B01AC01D4
:10383000C701B6010F94BF3CA30192010F94BE3C97
:103840006B017C012CA93DA94EA95FA968A579A5AA
:103850008AA59BA50F94BF3C20E030E040E05FE3E9
:103860000F94DC382B013C012CA53DA54EA55FA58E
:1038700068AD79AD8AAD9BAD0F949B3D9B01AC01CA
:10388000C501B4010F94DC389B01AC01C301B20146
:103890000F94BF3C28A539A54AA55BA50F94BE3C53
:1038A00014C089E40E946C3F882329F00E94F23EF4
:1038B0006B017C0103C0C12CD12C76018AE40E94EB
:1038C0006C3F8823D9F00E94F23E68AB79AB8AAB9B
:1038D0009BAB20E030E0A901C701B6010F94773817
:1038E00081111AC020E030E0A90168A979A98AA94C
:1038F0009BA90F94773881110FC092C520E030E06A
:10390000A901C701B6010F947738882309F488C547
:1039100018AA19AA1AAA1BAAD701C601B05888A7C3
:1039200099A7AAA7BBA748A859A86AA87BA877FA0D
:10393000709477F870949C01AD01BC01CD010F9497
:10394000DC384B015C01A3019201C301B2010F9469
:10395000DC389B01AC01C501B4010F94BF3C0F944E
:10396000783F60966CAF7DAF8EAF9FAF6097209130
:1039700043083091440840914508509146082CABCB
:103980003DAB4EAB5FABA70196016CA97DA98EA99B
:103990009FA90F94BF3C68966CAF7DAF8EAF9FAF71
:1039A00068978091470890914808A0914908B09184
:1039B0004A0888AF99AFAAAFBBAF28A939A94AA9CD
:1039C0005BA9BC01CD010F94BF3CA4966CAF7DAF49
:1039D0008EAF9FAFA4972091E80E3091E90E4091F1
:1039E000EA0E5091EB0E2CAF3DAF4EAF5FAF689635
:1039F0002CAD3DAD4EAD5FAD68976CAD7DAD8EAD80
:103A00009FAD0F94BE3C6B017C018091EC0E9091B8
:103A1000ED0EA091EE0EB091EF0E24968CAF9DAFFF
:103A2000AEAFBFAF2497A4962CAD3DAD4EAD5FAD0C
:103A3000A497BC01CD010F94BE3C4B015C012091C9
:103A40004B0830914C0840914D0850914E082896F3
:103A50002CAF3DAF4EAF5FAF28976091F00E7091E5
:103A6000F10E8091F20E9091F30E0F94BE3C6CA774
:103A70007DA78EA79FA78091F40E9091F50EA0913F
:103A8000F60EB091F70E64968CAF9DAFAEAFBFAFA0
:103A9000649720914F0830915008409151085091FF
:103AA00052082C962CAF3DAF4EAF5FAF2C97A701BD
:103AB000960168A579A58AA59BA50F94DC386C961C
:103AC0006CAF7DAF8EAF9FAF6C97A5019401C30122
:103AD000B2010F94DC389B01AC016C966CAD7DADEE
:103AE0008EAD9FAD6C970F94BF3C6C966CAF7DAF65
:103AF0008EAF9FAF6C97A501940168A579A58AA5A3
:103B00009BA50F94DC384B015C01A7019601C30112
:103B1000B2010F94DC389B01AC01C501B4010F94D4
:103B2000BE3C6C962CAD3DAD4EAD5FAD6C970F9429
:103B3000323D6B017C0120E030E0A9010F94773821
:103B400087FF0AC02BED3FE049EC50E4C701B60106
:103B50000F94BF3C6B017C01112351F02BED3FE032
:103B600049EC50E4C701B6010F94BE3C6B017C01E7
:103B700020E030E0A901C701B6010F947738811128
:103B800022C02CAD3DAD4EAD5FAD6CA97DA98EA917
:103B90009FA90F947738811116C024962CAD3DADA6
:103BA0004EAD5FAD249768AD79AD8AAD9BAD0F94F6
:103BB0007738811108C0BBEDCB2EBFE0DB2EB9EC0E
:103BC000EB2EB0E4FB2EA701960160966CAD7DADA7
:103BD0008EAD9FAD60970F94DC384B015C0120E007
:103BE00030E0A9016CA57DA58EA59FA50F9477381F
:103BF0008823D9F0A5019401C501B4010F94DC38E4
:103C00004B015C012CA53DA54EA55FA5CA01B901DC
:103C10000F94DC389B01AC01C501B4010F94BF3C8B
:103C20000F94783F4B015C010DC020E030E0A9010A
:103C3000C501B4010F94333F87FF04C0B7FAB094B5
:103C4000B7F8B0942FE632E143E85AE3C501B40176
:103C50000F94773887FF02C00C94E535C501B40195
:103C60000F94343E0F94083E7DAF6CAF672B21F468
:103C700081E090E09DAF8CAFACADBDADBD0180E00B
:103C800090E00F947B384B015C019B01AC01C701B4
:103C9000B6010F949B3D6CAB7DAB8EAB9FABA5018A
:103CA00094016CA57DA58EA59FA50F949B3DE096E4
:103CB0006CAF7DAF8EAF9FAFE0972C962CAD3DAD36
:103CC0004EAD5FAD2C9764966CAD7DAD8EAD9FAD66
:103CD00064970F94BE3CA50194010F949B3DE4961C
:103CE0006CAF7DAF8EAF9FAFE4972CA93DA94EA9D5
:103CF0005FA9CA01B9010F94DC3820E030E040E050
:103D00005FE30F94DC389B01AC0160E070E080E879
:103D10009FE30F94BE3C6C966CAF7DAF8EAF9FAFB0
:103D20006C9728962CAD3DAD4EAD5FAD2897298799
:103D30003A874B875C872C968CAD9DADAEADBFAD01
:103D40002C978D879E87AF87B88B60916D0270919D
:103D50006E02072E000C880B990B0F947D38209172
:103D60005E0230915F0240916002509161020F94B7
:103D7000DC382AE037ED43E25CE30F94DC38A896A8
:103D80006CAF7DAF8EAF9FAFA8970E9437F59B01B8
:103D9000AC0128533F4F4F4F5F4FAC962CAF3DAF18
:103DA0004EAF5FAFAC978091FB0B9091FC0BA09155
:103DB000FD0BB091FE0B2C968CAF9DAFAEAFBFAF9D
:103DC0002C972091FF0B3091000C4091010C5091E9
:103DD000020C60962CAF3DAF4EAF5FAF6097809105
:103DE000030C9091040CA091050CB091060C649604
:103DF0008CAF9DAFAEAFBFAF649798A59CA7A9A5A8
:103E0000A8AF2AA43BA4E1E0F0E02696FFAFEEAF16
:103E10002697F9E12196FFAF219726968EAD9FADAB
:103E20002697ACADBDAD8A179B0709F4E1C10E948E
:103E3000349C0E9437F5DC01CB01AC962CAD3DAD36
:103E40004EAD5FADAC97821B930BA40BB50BB7FDCA
:103E500010C00E9437F59B01AC0128533F4F4F4FD4
:103E60005F4FAC962CAF3DAF4EAF5FAFAC970E94AB
:103E70006A5521963FAD2197315021963FAF21974A
:103E80003323F1F16C962CAD3DAD4EAD5FAD6C972B
:103E9000C301B2010F94DC386B017C012CA93DA950
:103EA0004EA95FA96CA578ADC1010F94DC38A701BC
:103EB00096010F94BF3C7B018C016C962CAD3DADFF
:103EC0004EAD5FAD6C976CA578ADC1010F94DC3839
:103ED0004B015C012CA93DA94EA95FA9C301B20108
:103EE0000F94DC389B01AC01C501B4010F94BE3CBA
:103EF0006CA778AF1C01C701D8012C013D0154C04B
:103F000026964EAD5FAD2697BA0180E090E00F9403
:103F10007B382CA93DA94EA95FA90F94DC384B0131
:103F20005C010F94983D6B017C01C501B4010F94B5
:103F30006E3F4B015C01A701960168A579A58AA592
:103F40009BA50F94DC382B013C01A501940168A9C5
:103F500079A98AA99BA90F94DC389B01AC01C30104
:103F6000B2010F94BF3C6CA778AF1C01A50194016E
:103F700068A579A58AA59BA50F94DC384B015C0147
:103F8000A701960168A979A98AA99BA90F94DC3891
:103F90009B01AC01C501B4010F94BE3C2B013C0157
:103FA00059E121965FAF21972CA538ADA101689604
:103FB0006CAD7DAD8EAD9FAD68970F94BF3C6983AE
:103FC0007A838B839C83A3019201A4966CAD7DAD13
:103FD0008EAD9FADA4970F94BF3C6D837E838F837E
:103FE0009887E0962CAD3DAD4EAD5FADE09769850D
:103FF0007A858B859C850F94BF3C69877A878B87F0
:104000009C87E4962CAD3DAD4EAD5FADE4976D85DC
:104010007E858F8598890F94BF3C6D877E878F87BB
:10402000988B80914F02882321F0CE0101960F9446
:10403000C613CE0101960E94C75B8091B40A882303
:1040400009F442C0CE0101960E94D75D6B017C014C
:104050009B01AC0160915308709154088091550800
:10406000909156080F94BF3C609353087093540886
:104070008093550890935608A701960160915708C0
:10408000709158088091590890915A080F94BF3C3C
:1040900060935708709358088093590890935A0872
:1040A000A701960160915B0870915C0880915D08A2
:1040B00090915E080F94BF3C60935B0870935C081E
:1040C00080935D0890935E0880E090E0A0E8BFE3F5
:1040D0008CA39DA3AEA3BFA31091800A2C962CADF8
:1040E0003DAD4EAD5FAD2C97609153087091540873
:1040F00080915508909156080F94BE3CA0966CAFE5
:104100007DAF8EAF9FAFA09760962CAD3DAD4EAD0D
:104110005FAD609760915708709158088091590879
:1041200090915A080F94BE3C4B015C0164962CADF3
:104130003DAD4EAD5FAD649760915B0870915C08DA
:1041400080915D0890915E080F94BE3C6B017C01EC
:10415000A0962CAD3DAD4EAD5FADA097CA01B901A3
:104160000F94DC38A0966CAF7DAF8EAF9FAFA09759
:10417000A5019401C501B4010F94DC389B01AC0189
:10418000A0966CAD7DAD8EAD9FADA0970F94BF3C5A
:104190004B015C01A7019601C701B6010F94DC3801
:1041A0009B01AC01C501B4010F94BF3C0F94783F53
:1041B000A8962CAD3DAD4EAD5FADA8970F94DC3801
:1041C00068A379A38AA39BA3DE0194966D01E12ED7
:1041D0008E01005E1F4F9E01235F3F4F4BE558E06D
:1041E00067E578E083E598E00E94A0D181114CC09A
:1041F00088EE9EE00E94C75B8091B40A882309F490
:1042000078C088EE9EE00E94D75D6B017C019B0127
:10421000AC016091530870915408809155089091B9
:1042200056080F94BF3C60935308709354088093D2
:10423000550890935608A701960160915708709110
:1042400058088091590890915A080F94BF3C609388
:104250005708709358088093590890935A08A701FB
:10426000960160915B0870915C0880915D08909167
:104270005E080F94BF3C60935B0870935C0880936A
:104280005D0890935E0835C0209153083091540822
:1042900040915508509156082C962CAF3DAF4EAF2B
:1042A0005FAF2C978091570890915808A0915908BA
:1042B000B0915A0860968CAF9DAFAEAFBFAF60971C
:1042C00020915B0830915C0840915D0850915E0838
:1042D00064962CAF3DAF4EAF5FAF649726964EAD60
:1042E0005FAD26974F5F5F4F26965FAF4EAF269725
:1042F00094CD2C962CAD3DAD4EAD5FAD2C9760911D
:1043000053087091540880915508909156080F9465
:10431000BE3C6B017C0160962CAD3DAD4EAD5FADFA
:104320006097609157087091580880915908909152
:104330005A080F94BE3C4B015C0164962CAD3DAD18
:104340004EAD5FAD649760915B0870915C088091A1
:104350005D0890915E080F94BE3C2B013C01A701C3
:104360009601C701B6010F94DC386B017C01A501F1
:104370009401C501B4010F94DC389B01AC01C70165
:10438000B6010F94BF3C6B017C01A3019201C301F4
:10439000B2010F94DC389B01AC01C701B6010F9448
:1043A000BF3C6B017C0120E030E0A9010F9477381D
:1043B000882359F180E090E0A0E8BFE38CA39DA39F
:1043C000AEA3BFA31091800AC701B6010F94783F36
:1043D000A8962CAD3DAD4EAD5FADA8970F94DC38DF
:1043E00068A379A38AA39BA3FE01B4966F01E12E73
:1043F0008E01005E1F4F24EF3EE04BE558E067E57D
:1044000078E083E598E00E94A0D180E1E8EEFEE04C
:10441000A3E4B8E001900D928A95E1F70C94E5359C
:10442000EBEBF0E284918F010F5F1F4F882321F0A7
:104430000E94A643F801F6CFEBE3F2E084918F01EE
:104440000F5F1F4F882311F40C94E5350E94A6439B
:10445000F801F4CF80E50E946C3F882329F00E9488
:10446000B23E6B017C0103C0C12CD12C760183E5E7
:104470000E946C3F882361F00E94F23E20E030E011
:104480004AE754E40F94DC380F94083E6B017C013A
:104490000F94F7078091F107811105C060E081E575
:1044A00092E00F9431020E9437F5C60ED71EE81E27
:1044B000F91E0E9437F5DC01CB018C199D09AE096C
:1044C000BF09B7FD02C00C94E5350E946A55F1CFD3
:1044D0008091C7058770873071F48FE40E946C3F2C
:1044E000882319F00E94E33E03C08FE40E94253F19
:1044F00081110C94E5350F94F7071091B40A80E010
:104500000E94703C0E94C33A81E08093C6050E94DD
:1045100007C28091C5058093C60519821A821B8245
:104520001C82BE016F5F7F4F8BE492E00E94A54228
:10453000812F0E94703C0E94AA3A83E080932C0253
:104540000E94C8A10C94E5350E94D6BC0C94E535B8
:10455000C0904308D0904408E0904508F090460889
:1045600088E50E946C3F811108C020E030E0A9017D
:10457000C701B6010F94BF3C02C00E94F23E68A37F
:1045800079A38AA39BA3C0904708D0904808E090E5
:104590004908F0904A0889E50E946C3F811108C0E3
:1045A00020E030E0A901C701B6010F94BF3C02C072
:1045B0000E94F23E9B01AC0169837A838B839C83CA
:1045C00068A179A18AA19BA10F945815882311F4A1
:1045D0000C94E53580E00E94703C0E94C33A85E46B
:1045E0000E946C3F882321F00E94E33E182F04C0F4
:1045F00085E40E94253F11E086E50E946C3F8823F8
:1046000021F00E94C23E262F01C021E001E0412F8F
:10461000BE016F5F7F4FCE0180960E94FD476B0108
:104620007C019B01AC010F94B93F81115FC088A050
:1046300099A0AAA0BBA020E030E0A901C501B40167
:104640000F94773887FD05C027E137EB41E558E344
:1046500004C027E137EB41E558EBC501B4010F94E5
:10466000BF3CAB01BC0185E692E00F9463218980D9
:104670009A80AB80BC8020E030E0A901C501B40184
:104680000F94773887FD05C027E137EB41E558E304
:1046900004C027E137EB41E558EBC501B4010F94A5
:1046A000BF3CAB01BC0180E692E00F94632120E0A7
:1046B00030E0A901C701B6010F94773887FD05C026
:1046C00027E137EB41E558E304C027E137EB41E54B
:1046D00058EBC701B6010F94BF3CAB01BC018BE5A1
:1046E00092E00F9463218AE00E94A6430E94AA3AB6
:1046F0000E94C8A10C94E53580912602882311F40C
:104700000C94E53589E40E946C3F082F882321F042
:104710000E94C23EE62E01C0E12C8AE40E946C3F5A
:10472000F82E882331F00E94C23E162F011104C0DA
:104730000BC010E00023B9F0F6E0FE1510F00C9469
:10474000A739EDE6F2E003C01730D8F70CC084912A
:104750008F010F5F1F4F882311F40C94E5350E94E1
:10476000A643F801F4CF0E943E400023F1F02091CF
:10477000AC0A3091AD0A4E2D4203B001439F700D3B
:10478000112420916E0530916F05620F731F072E63
:10479000000C880B990B0F947D386093E80E709392
:1047A000E90E8093EA0E9093EB0EFF20E9F0209142
:1047B000AE0A3091AF0A1203B001139F700D11249D
:1047C0008091700590917105680F791F072E000C7C
:1047D000880B990B0F947D386093EC0E7093ED0E5F
:1047E0008093EE0E9093EF0E80E50E946C3F88233D
:1047F00019F00E94E33E03C080E50E94253F86E455
:104800000E946C3F8823D9F00E94F23E6B017C012C
:1048100020E030E0A9010F94333F181684F420E023
:1048200030E040E752E4C701B6010F949B3D60932E
:104830005E0270935F0280936002909361020E9417
:10484000EF5F0C94E53581E0809368030C94E535C7
:10485000E0E72E2EE2E03E2EF0E7EF2EFAE0FF2E0C
:10486000A3E4CA2EA8E0DA2E00E010E0D1018D9179
:104870001D010E946C3F882309F44AC00E94F23E49
:104880002B013C01133049F0F70120813181428135
:1048900053810F94BE3C2B013C01D6012D913D91DB
:1048A0004D915C91C301B2010F94BE3C4B015C0180
:1048B0002DEB37E346E855EB0F94333F87FD0AC0F5
:1048C0002DEB37E346E855E3C501B4010F94773883
:1048D0001816F4F4133051F440924F0850925008D7
:1048E000609251087092520801E012C0A501940133
:1048F000F70160817181828193810F94BF3CD70160
:104900006D937D938D939C931397812F0E94E23A30
:104910001F5FB4E0EB0EF11CE4E0CE0ED11C1430AE
:1049200009F0A4CF002309F459C0C0904F08D090DB
:104930005008E0905108F090520820E030E0A901C2
:10494000C701B6010F94BF3C20918F0530919005AF
:1049500040919105509192050F94DC380F943E3FA1
:104960006093170C7093180C8093190C90931A0C89
:10497000C092070CD092080CE092090CF0920A0C3D
:104980009091E50B8091E60B981719F00E94BCE01E
:1049900025C00F94F70780916F0081FB992790F94C
:1049A00081FF05C080916F008D7F80936F004091E3
:1049B000170C5091180C6091190C70911A0C4093BF
:1049C0006C0750936D0760936E0770936F07992380
:1049D00029F080916F00826080936F000E94C8A1CF
:1049E0000C94E5350E944FB50C94E5358091560442
:1049F000909157048637910509F4C3C70CF0BAC0EB
:104A00008C34910509F409C40CF053C08931910527
:104A100009F41EC234F58431910509F4ABC194F454
:104A20008131910509F497C144F4029710F00C9478
:104A300096350E949EA50C94E535429709F439C736
:104A40000C9496358631910509F4DBC10CF4D5C17F
:104A50008731910509F4DBC1489709F4EEC10C9444
:104A600096358E31910509F489C284F48B31910514
:104A700009F402C20CF4F2C18C31910509F474C23C
:104A80004D9711F40C94E5350C94963580329105D0
:104A900009F405C30CF44FC38A32910509F475C3B8
:104AA0008B34910511F00C9496350F94C1210C9420
:104AB000E5358936910509F4D7C35CF58335910551
:104AC00009F4F2C69CF48E34910509F4AEC30CF4DB
:104AD000A8C38135910509F4D2C68235910511F03C
:104AE0000C949635109267030C94E5358535910545
:104AF00009F412C70CF4DDC68C35910509F427C7FB
:104B00008836910511F00C9496350E945AA40C94A5
:104B1000E5358E36910509F48CC384F48B36910506
:104B200009F49BC60CF47BC68C36910509F498C336
:104B30008D36910509F4D9C30C94963582379105C9
:104B400009F409C76CF48F36910509F485C38037E1
:104B5000910511F00C94963581E393E00F949E1526
:104B60008337910509F4FBC68537910509F4FBC627
:104B70000C9496358E32F1E09F0711F40C94762E4A
:104B80000CF05EC08B3C910509F418C76CF58139B7
:104B9000910509F40BC784F48837910509F4F9C627
:104BA0000CF4F3C68937910509F4FAC68C389105DF
:104BB00009F45FC50C9496358E3B910509F477C5D1
:104BC00034F48B39910509F469C30C949635883C0B
:104BD000910509F4EFC6893C910511F00C949635C6
:104BE0000E94B9A00C94E5358D3D910509F405C7E7
:104BF00084F48D3C910509F4E9C60CF4E3C6833DC9
:104C0000910509F4E7C68C3D910509F4E7C60C94BB
:104C10009635823231E0930709F48FC734F4823E2F
:104C2000910509F45BC70C9496358C3251E09507D9
:104C300009F491C78D32914009F4B7C70C949635A9
:104C4000853FB1E09B0711F40C94ED330CF046C0A6
:104C50008239F1E09F0711F40C94463204F5833653
:104C600031E0930711F40C942A323CF48F329140D6
:104C700011F40C94CA2E0C9496358039A1E09A0751
:104C800011F40C9443328139914011F00C94963513
:104C900081E00E9406430E94C8A10C94E535843A45
:104CA000E1E09E0711F40C944C324CF48A399140A7
:104CB00011F00C9496350E94839E0C94E535853A4C
:104CC00031E0930711F40C945533843F914011F077
:104CD0000C9496350E941C6E0C94E5358A3952E08E
:104CE000950711F40C949D34B4F4873FB1E09B0711
:104CF00011F40C94F33314F40C94F033883FF1E086
:104D00009F0711F40C94FF338939924011F40C94ED
:104D100022340C9496358B3833E0930711F40C94BD
:104D2000E5356CF4833553E0950711F40C94C434E5
:104D30008438934011F40C942A350C949635803ABB
:104D4000B3E09B0709F4EAC1873E934011F40C9449
:104D500081350C94963560E08CE892E00F94310236
:104D60005F988A988091080181708093060112985B
:104D70000C94E535E1EBF2E084918F010F5F1F4F5A
:104D8000882321F00E94A643F801F6CF1092DF0E8F
:104D900040E050E0BA0182E99CE00E94ECA88BE17F
:104DA000E2E9FCE0DE01159601900D928A95E1F7AB
:104DB0008091900C9091910C9C838B8386E193E081
:104DC0009A83898340E050E0BE016F5F7F4F80E0AF
:104DD00090E00E94D2FCCE0101960F949615E2EA73
:104DE000F2E084918F010F5F1F4F882311F40C9420
:104DF000E5350E94A643F801F4CF0E9457B30C9406
:104E0000E53510923B0C10923C0C0C94E535E0918A
:104E10005404F09155048081882329F0803209F4EC
:104E200010823196F8CF40E061E080915404909177
:104E300055040E9469B10C94E53580913C0C88239F
:104E400019F081E080933B0C0F94C1210C94E5355F
:104E500010923B0C0E94E39D0C94E53580913C0C34
:104E6000882311F40C94E53583E50E946C3F811191
:104E70000C94ED350C94E53583E40E94253F88239E
:104E800099F1EFEEF2E084918F010F5F1F4F8823BD
:104E900021F00E94A643F801F6CF80912D0E8823C1
:104EA00091F0BE016F5F7F4F8AE29EE00F94E910A0
:104EB0008E010F5F1F4FD8018D918D01882379F0EE
:104EC0000E94A643F8CFE2ECF2E084918F010F5FDD
:104ED0001F4F882321F00E94A643F801F6CF8AE0F5
:104EE0000E94A6430C94E53580913C0C882371F117
:104EF00080913B0C882351F1ECECF2E084918F011E
:104F00000F5F1F4F882321F00E94A643F801F6CFC0
:104F10006091DB0E7091DC0E8091DD0E9091DE0EC3
:104F20004AE00E9449468FE20E94A6436091D70E54
:104F30007091D80E8091D90E9091DA0E4AE00E94BD
:104F400049468AE00E94A6430C94E535EEEDF2E076
:104F500084918F010F5F1F4F882311F40C94E53566
:104F60000E94A643F801F4CF40E060E08091540431
:104F7000909155040E9469B10C94E53580913C0CE8
:104F8000882311F40C94E5358AE29EE00E94BAA8C9
:104F90008AE29EE00F94C41010923A0C1092390CE1
:104FA000009154041091550480913C0C882311F415
:104FB0000C94E5350E940BFCB801CE0180960E944E
:104FC00053FB8C01892B11F40C94E53568A179A170
:104FD0006115710511F06C5F7F4F19821C8222E010
:104FE000A801CE0101960E94D5AE811102C0F12C1C
:104FF00014C0CE0101960E94C1FA8823C1F361E07A
:10500000CE0101960F94CD10009789F325EEFC0197
:1050100020831C820E94CBA6F82ECE0101960E940E
:105020003840FF2011F1EEEFF2E084917F012FEF85
:10503000E21AF20A882321F00E94A643F701F5CF75
:10504000D8018D918D01882319F00E94A643F8CFD5
:105050008AE00E94A6431092DB0E1092DC0E1092A2
:10506000DD0E1092DE0E0C94E535ECE0F3E0849159
:105070007F01BFEFEB1AFB0A882321F00E94A643B1
:10508000F701F5CFF80181918F01882319F00E9473
:10509000A643F8CF8EE20E94A6430C94E53580919A
:1050A0003B0C81110F94F70780913C0C882311F47D
:1050B0000C94E53580E50E946C3F882319F00E942E
:1050C000E33E03C080E50E94253F182F482F61E092
:1050D00080915404909155040E9469B183E50E9427
:1050E0006C3F882381F00E94C23EAB01BC0140931B
:1050F000DB0E5093DC0E6093DD0E7093DE0E8AE2C1
:105100009EE00E94ECA880913C0C882319F081E07D
:1051100080933B0C11110C94E53596CE809154048C
:105120009091550421E020933A0C40E060E00E9409
:1051300069B10C94E5350E94AF9D68A379A38AA359
:105140009BA3BE016F5F7F4FCE0180960E94783F88
:1051500060E0CE0101960F946D02EBEEFAE28491CD
:105160008F010F5F1F4F882321F00E94A643F80193
:10517000F6CFBE016F5F7F4F84E293E00F949921D9
:105180008AE00E94A6430C94E53583E50E946C3FBB
:10519000882311F40C94E5350E94D23EE82E80E578
:1051A0000E946C3F882339F00E94D23E182F87FF5F
:1051B00003C00C94E5351DE089E40E946C3F882310
:1051C00049F00E94E33E811111C0E7E9F3E08DE26E
:1051D0008E0F07C089E40E94253FF5CF31968E17C8
:1051E00029F094911913FACF0C94493761E0812F7B
:1051F0000E94FBF36E2D812F0E94F693F12CB701D4
:10520000812F0E9437F4193011F00C94E535F0929B
:10521000E207E092E1070C94E5350E94E39D0C94CF
:10522000E5350F941F220C94E5350E9485A40C945B
:10523000E5358EE40E946C3F882311F40C94E5352B
:105240000E94C23E60936C0A70936D0A80936E0A4E
:1052500090936F0A0C94E5350E94E3A30C94E53516
:10526000109225020C94E53589E690E00E94AF4645
:1052700081110C94AD39EDE3F3E084918F010F5F60
:105280001F4F882321F00E94A643F801F6CF0E9409
:1052900062968AE00E94A6430C94AD3983E50E9491
:1052A0006C3F882311F40C94E5350E94D23E182FF0
:1052B0008D3308F01CE31093FB040E9437F56B015B
:1052C0007C01212F30E0A8EEB3E00F94AF3CC60E76
:1052D000D71EE81EF91EC092F704D092F804E0929F
:1052E000F904F092FA040C94E5358DE690E00E9402
:1052F000AF4681110C94E5358091A60A83FF02C068
:105300000C94E53583E50E946C3F88A7811105C0A8
:1053100082E50E946C3F8823E1F10E94F23E0F94E7
:10532000033E7093E0076093DF0780E00E948F9751
:105330000E94F23E20E030E04AEA52E40F947738CF
:10534000181614F40C94FE350F941F220E942DE6BB
:105350006091DF077091E007072E000C880B990B16
:105360000F947D382091BD0A3091BE0A4091BF0A4A
:105370005091C00A0F94333F181614F40C9402365F
:10538000F8A5F11105C084E493E060E00F943102C8
:1053900081E0C657DF4F8883CA58D0400F949F22C0
:1053A000C657DF4F8881CA58D040882311F40C9427
:1053B000E53581E0809325021CAA1DAA1EAA1FAA1A
:1053C00028961CAE1DAE1EAE1FAE289718AA2996B1
:1053D0001FAE29972CE32D962FAF2D973CE16196B8
:1053E0003FAF619746E465964FAF6597C12CD12CCE
:1053F00060E8E62E7FEBF72E812C912C5401609112
:10540000DF077091E007072E000C880B990B0F94B3
:105410007D38162F072F782E692E262F372F482FED
:10542000592FB601C7010F9477388823C1F0209116
:10543000BD0A3091BE0A4091BF0A5091C00A612F47
:10544000702F872D962D0F947738881F8827881FF7
:1054500088AB58A5552339F0882329F0D6C11C2DD7
:105460000D2D7E2C6F2C0E9437F56B017C01DC0129
:10547000CB0128962CAD3DAD4EAD5FAD2897821B7C
:10548000930BA40BB50BB7FD3DC0D701C6018851E6
:105490009C4FAF4FBF4F28968CAF9DAFAEAFBFAF05
:1054A00028970E946296E0E4F3E084912F019FEF39
:1054B000491A590A882321F00E94A643F201F5CF28
:1054C00081149104A104B104B9F0D501C401805F35
:1054D000984DAF4FBF4FBC01CD016C197D098E09AE
:1054E0009F0928EE33E040E050E00F94833CCA016E
:1054F000B9010E94EB4603C08FE30E94A6438AE0F5
:105500000E94A6430E946A550E9437F56093EF04FB
:105510007093F0048093F1049093F204A091BD0A7B
:10552000ACA7B091BE0AB8AFE091BF0AECAFF09162
:10553000C00A2196FFAF21979D01AF01612F702F07
:10554000872D962D0F94BE3C1B012C0120E030E0EE
:10555000A9010F94333F87FF04C057FA509457F8BE
:10556000509481149104A104B10459F420E030E076
:1055700040E85FE3C201B1010F94773887FF0DC0A7
:105580000AC020E030E040E450E4C201B1010F94D1
:10559000333F181614F44601570128A9222309F4B1
:1055A0004CC08CA99DA9AEA9BFA9892B8A2B8B2B96
:1055B00061F0D701C6012CA93DA94EA95FA9821BA4
:1055C000930BA40BB50BB7FD38C02CA538AD4CAD73
:1055D00021965FAD219729966FAD29972D967FADC6
:1055E0002D9761968FAD619765969FAD65970F94E6
:1055F000BE3C20E030E040EC5FE30F94773887FD5D
:1056000004C1D701C601805A9541AF4FBF4F8CAB43
:105610009DABAEABBFAB9CA529969FAF2997A8AD1C
:105620002D96AFAF2D97BCAD6196BFAF6197219618
:10563000EFAD21976596EFAF65978091250288239E
:1056400009F4E3C081149104A104B10429F4C12E2A
:10565000D02EE72CF62CD3CEF0E1CF1AF7E2DF0AFA
:10566000E108F108C818D908EA08FB08F7FECDC020
:10567000EECF8091A60A83FF02C00C94E53583E546
:105680000E946C3F882311F40C94E5350E94F23E91
:105690000F94033E6639710514F066E970E070936B
:1056A000DE076093DD070E9444970C94E5358091F6
:1056B000A60A83FF02C00C94E53583E50E946C3F87
:1056C00021968FAF2197811107C082E50E946C3F20
:1056D000882311F40C94E5350E94F23E0F94033EAA
:1056E0006639710514F00C9414377093DE076093DB
:1056F000DD070E9444970E94F23E20E030E040EA3D
:1057000050E40F94333F181614F40F94C1216091A4
:10571000DD077091DE07072E000C880B990B0F94A4
:105720007D382091B90A3091BA0A4091BB0A509154
:10573000BC0A0F94333F181614F40C94063686E610
:1057400093E060E00F94310281E080932502809124
:10575000800A8093780718AA19AA1AAA1BAA289661
:105760001CAE1DAE1EAE1FAE289718A629961FAE02
:1057700029972CE32D962FAF2D973CE161963FAFF3
:10578000619746E465964FAF6597C12CD12C40E8F0
:10579000E42E5FEBF52E812C912C54016091DD07F6
:1057A0007091DE07072E000C880B990B0F947D3843
:1057B000162F072F782E692E262F372F482F592F77
:1057C000B601C7010F947738882311F40C940A3678
:1057D0002091B90A3091BA0A4091BB0A5091BC0A93
:1057E000612F702F872D962D0F947738881F88276B
:1057F000881F88A721965FAD2197552311F40C943B
:105800000E36882311F40C940E36809125028823DD
:1058100011F40C94E5350E942DE60C94E53580E5F5
:105820000E946C3F811106C083E50E946C3F882373
:1058300061F006C00E94D23E81110C94E535F4CF90
:105840000E94C23E6F3F710510F06FEF70E07093E1
:10585000E2076093E1070C94E53580E50E946C3F18
:10586000811106C01092E2071092E1070C94E53511
:105870000E94C23E672B11F00C94E535F3CF0E94D5
:10588000DA970F9407081092E2071092E10768EE8A
:1058900073E080E090E00E9410FA60E083E893E01B
:1058A0000F9431020C94E53581E0809367030C94EA
:1058B000E53583E50E946C3F8823A1F00E94F23E0B
:1058C00020E030E04AE754E40F94DC380F94083EBF
:1058D00060931B0270931C0280931D0290931E0222
:1058E0000C94E53588E50E94253F81110C9418370A
:1058F00089E50E94253F81110C9418378AE50E94A2
:10590000253F81110C94183785E40E94253F8111B1
:105910000C9418370C94463783E50E94253F882362
:1059200011F40C94E5350E94F23E20E030E04AE7A5
:1059300054E40F94DC380F94083E6093F3047093A2
:10594000F4048093F5049093F6040C94E5350E94DA
:10595000CEA20C94E5350E9493A20C94E5350E94EA
:1059600079A10C94E5358091540490915504DC01A3
:105970002C91222309F44FCF60E00F946D020C9418
:10598000E5350E9427A10C94E5350F94F90B0C9492
:10599000E53581E08093C6058093C5050C94E53517
:1059A0001092C6051092C5050C94E5350E946CA3B3
:1059B0000C94E5350E94DEA00C94E5350E9497A07A
:1059C0000C94E5350E9420A00C94E5350E949F9F21
:1059D0000C94E5350E94C19E0C94E53583E50E9448
:1059E0006C3F882311F40C94E5350E94C23E7093FD
:1059F0006E0260936D020C94E5358DED90E00E948F
:105A0000AF4681110C94E53583E50E946C3F8823F5
:105A1000E1F10091780710E00E94C23E000F111FD3
:105A2000F801E559FD4F718360838091780790E01C
:105A30008C01000F111F000F111FF801E959FD4FD4
:105A40007F01880F991FFC01E559FD4F608171812D
:105A5000072E000C880B990B0F947D382AE037ED48
:105A600043E25CE30F94DC38F801E45CF04F208102
:105A70003181428153810F94DC38D7016D937D933E
:105A80008D939C9313970C94E535EBEEFAE2849199
:105A90008F010F5F1F4F882321F00E94A643F8015A
:105AA000F6CF85E40E94A64380917807805D0E942E
:105AB000A643E0917807F0E0EE0FFF1FE559FD4F98
:105AC000608171818FE893E00F94802185E20E94CC
:105AD000A6438AE00E94A6430C94E53580E50E9427
